{
  "address": "0x61Ac32C4B15D7b73299a66972CE5DDa9fF69bD4b",
  "abi": [
    {
      "inputs": [
        {
          "internalType": "uint256",
          "name": "_fee",
          "type": "uint256"
        },
        {
          "internalType": "address",
          "name": "_vrfCoordinator",
          "type": "address"
        },
        {
          "internalType": "bytes32",
          "name": "_gasLane",
          "type": "bytes32"
        },
        {
          "internalType": "uint64",
          "name": "_subscriptionId",
          "type": "uint64"
        },
        {
          "internalType": "uint32",
          "name": "_callbackGasLimit",
          "type": "uint32"
        },
        {
          "internalType": "uint256",
          "name": "_interval",
          "type": "uint256"
        }
      ],
      "stateMutability": "nonpayable",
      "type": "constructor"
    },
    {
      "inputs": [],
      "name": "Lottery__NeedToSendCorrectAmount",
      "type": "error"
    },
    {
      "inputs": [],
      "name": "Lottery__NotOpen",
      "type": "error"
    },
    {
      "inputs": [],
      "name": "Lottery__TransferFailed",
      "type": "error"
    },
    {
      "inputs": [
        {
          "internalType": "uint256",
          "name": "_lotteryBalance",
          "type": "uint256"
        },
        {
          "internalType": "uint256",
          "name": "_numberOfPlayers",
          "type": "uint256"
        },
        {
          "internalType": "uint256",
          "name": "_lotteryState",
          "type": "uint256"
        }
      ],
      "name": "Lottery__UpKeepNotNeeded",
      "type": "error"
    },
    {
      "inputs": [
        {
          "internalType": "address",
          "name": "have",
          "type": "address"
        },
        {
          "internalType": "address",
          "name": "want",
          "type": "address"
        }
      ],
      "name": "OnlyCoordinatorCanFulfill",
      "type": "error"
    },
    {
      "anonymous": false,
      "inputs": [
        {
          "indexed": true,
          "internalType": "address",
          "name": "_player",
          "type": "address"
        }
      ],
      "name": "LotteryEntered",
      "type": "event"
    },
    {
      "anonymous": false,
      "inputs": [
        {
          "indexed": true,
          "internalType": "uint256",
          "name": "_requestId",
          "type": "uint256"
        }
      ],
      "name": "RandomWinnerRequested",
      "type": "event"
    },
    {
      "anonymous": false,
      "inputs": [
        {
          "indexed": true,
          "internalType": "address",
          "name": "s_newWinner",
          "type": "address"
        }
      ],
      "name": "WinnerPicked",
      "type": "event"
    },
    {
      "inputs": [
        {
          "internalType": "bytes",
          "name": "",
          "type": "bytes"
        }
      ],
      "name": "checkUpkeep",
      "outputs": [
        {
          "internalType": "bool",
          "name": "upkeepNeeded",
          "type": "bool"
        },
        {
          "internalType": "bytes",
          "name": "",
          "type": "bytes"
        }
      ],
      "stateMutability": "view",
      "type": "function"
    },
    {
      "inputs": [],
      "name": "enterLottery",
      "outputs": [],
      "stateMutability": "payable",
      "type": "function"
    },
    {
      "inputs": [],
      "name": "getFee",
      "outputs": [
        {
          "internalType": "uint256",
          "name": "",
          "type": "uint256"
        }
      ],
      "stateMutability": "view",
      "type": "function"
    },
    {
      "inputs": [],
      "name": "getInterval",
      "outputs": [
        {
          "internalType": "uint256",
          "name": "",
          "type": "uint256"
        }
      ],
      "stateMutability": "view",
      "type": "function"
    },
    {
      "inputs": [],
      "name": "getLatestTimeStamp",
      "outputs": [
        {
          "internalType": "uint256",
          "name": "",
          "type": "uint256"
        }
      ],
      "stateMutability": "view",
      "type": "function"
    },
    {
      "inputs": [],
      "name": "getLotteryState",
      "outputs": [
        {
          "internalType": "uint256",
          "name": "",
          "type": "uint256"
        }
      ],
      "stateMutability": "view",
      "type": "function"
    },
    {
      "inputs": [],
      "name": "getNewWinner",
      "outputs": [
        {
          "internalType": "address",
          "name": "",
          "type": "address"
        }
      ],
      "stateMutability": "view",
      "type": "function"
    },
    {
      "inputs": [],
      "name": "getNumWords",
      "outputs": [
        {
          "internalType": "uint256",
          "name": "",
          "type": "uint256"
        }
      ],
      "stateMutability": "pure",
      "type": "function"
    },
    {
      "inputs": [],
      "name": "getPlayers",
      "outputs": [
        {
          "internalType": "address payable[]",
          "name": "",
          "type": "address[]"
        }
      ],
      "stateMutability": "view",
      "type": "function"
    },
    {
      "inputs": [],
      "name": "getRequestConfirmations",
      "outputs": [
        {
          "internalType": "uint256",
          "name": "",
          "type": "uint256"
        }
      ],
      "stateMutability": "pure",
      "type": "function"
    },
    {
      "inputs": [
        {
          "internalType": "bytes",
          "name": "",
          "type": "bytes"
        }
      ],
      "name": "performUpkeep",
      "outputs": [],
      "stateMutability": "nonpayable",
      "type": "function"
    },
    {
      "inputs": [
        {
          "internalType": "uint256",
          "name": "requestId",
          "type": "uint256"
        },
        {
          "internalType": "uint256[]",
          "name": "randomWords",
          "type": "uint256[]"
        }
      ],
      "name": "rawFulfillRandomWords",
      "outputs": [],
      "stateMutability": "nonpayable",
      "type": "function"
    }
  ],
  "transactionHash": "0x65d4d6c6e6f7fc609a944c39335910e86d29a4c9ccf0099c9952f3b11e54f2a2",
  "args": [
    "1000000000000000",
    "0x2Ca8E0C643bDe4C2E08ab1fA0da3401AdAD7734D",
    "0x79d3d8832d904592c0bf9818b621522c988bb8b0c05cdc3b15aea1b6e8db0c15",
    "4742",
    100000,
    1000
  ],
  "numDeployments": 1,
  "solcInputHash": "8394bb5f33e78d5337112e626884882f",
  "bytecode": "0x6101806040523480156200001257600080fd5b506040516200182f3803806200182f8339818101604052810190620000389190620002c9565b848073ffffffffffffffffffffffffffffffffffffffff1660808173ffffffffffffffffffffffffffffffffffffffff1681525050503373ffffffffffffffffffffffffffffffffffffffff1660a08173ffffffffffffffffffffffffffffffffffffffff16815250508560c081815250508473ffffffffffffffffffffffffffffffffffffffff1660e08173ffffffffffffffffffffffffffffffffffffffff16815250508361010081815250508267ffffffffffffffff166101208167ffffffffffffffff16815250508163ffffffff166101408163ffffffff16815250506000600160146101000a81548160ff0219169083600181111562000142576200014162000365565b5b02179055508061016081815250504260028190555050505050505062000394565b600080fd5b6000819050919050565b6200017d8162000168565b81146200018957600080fd5b50565b6000815190506200019d8162000172565b92915050565b600073ffffffffffffffffffffffffffffffffffffffff82169050919050565b6000620001d082620001a3565b9050919050565b620001e281620001c3565b8114620001ee57600080fd5b50565b6000815190506200020281620001d7565b92915050565b6000819050919050565b6200021d8162000208565b81146200022957600080fd5b50565b6000815190506200023d8162000212565b92915050565b600067ffffffffffffffff82169050919050565b620002628162000243565b81146200026e57600080fd5b50565b600081519050620002828162000257565b92915050565b600063ffffffff82169050919050565b620002a38162000288565b8114620002af57600080fd5b50565b600081519050620002c38162000298565b92915050565b60008060008060008060c08789031215620002e957620002e862000163565b5b6000620002f989828a016200018c565b96505060206200030c89828a01620001f1565b95505060406200031f89828a016200022c565b94505060606200033289828a0162000271565b93505060806200034589828a01620002b2565b92505060a06200035889828a016200018c565b9150509295509295509295565b7f4e487b7100000000000000000000000000000000000000000000000000000000600052602160045260246000fd5b60805160a05160c05160e051610100516101205161014051610160516114236200040c600039600081816105e501526106e1015260006104a601526000610483015260006104620152600061042601526000818161077401526108a1015260005050600081816102a001526102f401526114236000f3fe6080604052600436106100a75760003560e01c80636e04ff0d116100645780636e04ff0d146101aa5780638b5b9ccc146101e857806391ad27b414610213578063c1af57851461023e578063c7d6e90614610248578063ced72f8714610273576100a7565b80631fe543e3146100ac578063320229eb146100d55780634585e33b1461010057806353a2c19a146101295780635f1b0fd8146101545780636b68c03c1461017f575b600080fd5b3480156100b857600080fd5b506100d360048036038101906100ce9190610d7d565b61029e565b005b3480156100e157600080fd5b506100ea61035e565b6040516100f79190610de8565b60405180910390f35b34801561010c57600080fd5b5061012760048036038101906101229190610eb8565b610368565b005b34801561013557600080fd5b5061013e61055e565b60405161014b9190610de8565b60405180910390f35b34801561016057600080fd5b5061016961056d565b6040516101769190610de8565b60405180910390f35b34801561018b57600080fd5b5061019461057a565b6040516101a19190610de8565b60405180910390f35b3480156101b657600080fd5b506101d160048036038101906101cc9190610eb8565b6105a3565b6040516101df929190610f9b565b60405180910390f35b3480156101f457600080fd5b506101fd61064f565b60405161020a91906110bb565b60405180910390f35b34801561021f57600080fd5b506102286106dd565b6040516102359190610de8565b60405180910390f35b610246610705565b005b34801561025457600080fd5b5061025d610873565b60405161026a91906110fe565b60405180910390f35b34801561027f57600080fd5b5061028861089d565b6040516102959190610de8565b60405180910390f35b7f000000000000000000000000000000000000000000000000000000000000000073ffffffffffffffffffffffffffffffffffffffff163373ffffffffffffffffffffffffffffffffffffffff161461035057337f00000000000000000000000000000000000000000000000000000000000000006040517f1cf993f4000000000000000000000000000000000000000000000000000000008152600401610347929190611119565b60405180910390fd5b61035a82826108c5565b5050565b6000600254905090565b6000610382604051806020016040528060008152506105a3565b509050806103f15747600080549050600160149054906101000a900460ff1660018111156103b3576103b2611142565b5b6040517fa9e3cfef0000000000000000000000000000000000000000000000000000000081526004016103e893929190611171565b60405180910390fd5b4260028190555060018060146101000a81548160ff0219169083600181111561041d5761041c611142565b5b021790555060007f000000000000000000000000000000000000000000000000000000000000000073ffffffffffffffffffffffffffffffffffffffff16635d3b1d307f00000000000000000000000000000000000000000000000000000000000000007f000000000000000000000000000000000000000000000000000000000000000060037f000000000000000000000000000000000000000000000000000000000000000060016040518663ffffffff1660e01b81526004016104e7959493929190611220565b6020604051808303816000875af1158015610506573d6000803e3d6000fd5b505050506040513d601f19601f8201168201806040525081019061052a9190611288565b9050807f302e4abbbf85f09e8c1a81aaabf5f64a2dca99aa646ca90b6b6bf470e4148a7e60405160405180910390a2505050565b6000600163ffffffff16905090565b6000600361ffff16905090565b6000600160149054906101000a900460ff16600181111561059e5761059d611142565b5b905090565b6000606060008060018111156105bc576105bb611142565b5b600160149054906101000a900460ff1660018111156105de576105dd611142565b5b14905060007f00000000000000000000000000000000000000000000000000000000000000006002544261061291906112e4565b119050600080600080549050119050600080471190508380156106325750825b801561063b5750815b80156106445750805b955050505050915091565b606060008054806020026020016040519081016040528092919081815260200182805480156106d357602002820191906000526020600020905b8160009054906101000a900473ffffffffffffffffffffffffffffffffffffffff1673ffffffffffffffffffffffffffffffffffffffff1681526020019060010190808311610689575b5050505050905090565b60007f0000000000000000000000000000000000000000000000000000000000000000905090565b6000600181111561071957610718611142565b5b600160149054906101000a900460ff16600181111561073b5761073a611142565b5b14610772576040517fe76be6fc00000000000000000000000000000000000000000000000000000000815260040160405180910390fd5b7f000000000000000000000000000000000000000000000000000000000000000034146107cb576040517f9654d67a00000000000000000000000000000000000000000000000000000000815260040160405180910390fd5b6000339080600181540180825580915050600190039060005260206000200160009091909190916101000a81548173ffffffffffffffffffffffffffffffffffffffff021916908373ffffffffffffffffffffffffffffffffffffffff1602179055503373ffffffffffffffffffffffffffffffffffffffff167f4c72b57c1ca715219cf2c7be9edc8a3ea19dfb9a76fb7a05e2a8062a027ee97060405160405180910390a2565b6000600160009054906101000a900473ffffffffffffffffffffffffffffffffffffffff16905090565b60007f0000000000000000000000000000000000000000000000000000000000000000905090565b60008080549050826000815181106108e0576108df611318565b5b60200260200101516108f29190611376565b9050600080828154811061090957610908611318565b5b9060005260206000200160009054906101000a900473ffffffffffffffffffffffffffffffffffffffff16905080600160006101000a81548173ffffffffffffffffffffffffffffffffffffffff021916908373ffffffffffffffffffffffffffffffffffffffff160217905550600067ffffffffffffffff81111561099257610991610c3a565b5b6040519080825280602002602001820160405280156109c05781602001602082028036833780820191505090505b50600090805190602001906109d6929190610b33565b506000600160146101000a81548160ff021916908360018111156109fd576109fc611142565b5b02179055506000600160009054906101000a900473ffffffffffffffffffffffffffffffffffffffff1673ffffffffffffffffffffffffffffffffffffffff1647604051610a4a906113d8565b60006040518083038185875af1925050503d8060008114610a87576040519150601f19603f3d011682016040523d82523d6000602084013e610a8c565b606091505b5050905080610ac7576040517f1c94012000000000000000000000000000000000000000000000000000000000815260040160405180910390fd5b600160009054906101000a900473ffffffffffffffffffffffffffffffffffffffff1673ffffffffffffffffffffffffffffffffffffffff167f5b690ec4a06fe979403046eaeea5b3ce38524683c3001f662c8b5a829632f7df60405160405180910390a25050505050565b828054828255906000526020600020908101928215610bac579160200282015b82811115610bab5782518260006101000a81548173ffffffffffffffffffffffffffffffffffffffff021916908373ffffffffffffffffffffffffffffffffffffffff16021790555091602001919060010190610b53565b5b509050610bb99190610bbd565b5090565b5b80821115610bd6576000816000905550600101610bbe565b5090565b6000604051905090565b600080fd5b600080fd5b6000819050919050565b610c0181610bee565b8114610c0c57600080fd5b50565b600081359050610c1e81610bf8565b92915050565b600080fd5b6000601f19601f8301169050919050565b7f4e487b7100000000000000000000000000000000000000000000000000000000600052604160045260246000fd5b610c7282610c29565b810181811067ffffffffffffffff82111715610c9157610c90610c3a565b5b80604052505050565b6000610ca4610bda565b9050610cb08282610c69565b919050565b600067ffffffffffffffff821115610cd057610ccf610c3a565b5b602082029050602081019050919050565b600080fd5b6000610cf9610cf484610cb5565b610c9a565b90508083825260208201905060208402830185811115610d1c57610d1b610ce1565b5b835b81811015610d455780610d318882610c0f565b845260208401935050602081019050610d1e565b5050509392505050565b600082601f830112610d6457610d63610c24565b5b8135610d74848260208601610ce6565b91505092915050565b60008060408385031215610d9457610d93610be4565b5b6000610da285828601610c0f565b925050602083013567ffffffffffffffff811115610dc357610dc2610be9565b5b610dcf85828601610d4f565b9150509250929050565b610de281610bee565b82525050565b6000602082019050610dfd6000830184610dd9565b92915050565b600080fd5b600067ffffffffffffffff821115610e2357610e22610c3a565b5b610e2c82610c29565b9050602081019050919050565b82818337600083830152505050565b6000610e5b610e5684610e08565b610c9a565b905082815260208101848484011115610e7757610e76610e03565b5b610e82848285610e39565b509392505050565b600082601f830112610e9f57610e9e610c24565b5b8135610eaf848260208601610e48565b91505092915050565b600060208284031215610ece57610ecd610be4565b5b600082013567ffffffffffffffff811115610eec57610eeb610be9565b5b610ef884828501610e8a565b91505092915050565b60008115159050919050565b610f1681610f01565b82525050565b600081519050919050565b600082825260208201905092915050565b60005b83811015610f56578082015181840152602081019050610f3b565b60008484015250505050565b6000610f6d82610f1c565b610f778185610f27565b9350610f87818560208601610f38565b610f9081610c29565b840191505092915050565b6000604082019050610fb06000830185610f0d565b8181036020830152610fc28184610f62565b90509392505050565b600081519050919050565b600082825260208201905092915050565b6000819050602082019050919050565b600073ffffffffffffffffffffffffffffffffffffffff82169050919050565b600061102282610ff7565b9050919050565b61103281611017565b82525050565b60006110448383611029565b60208301905092915050565b6000602082019050919050565b600061106882610fcb565b6110728185610fd6565b935061107d83610fe7565b8060005b838110156110ae5781516110958882611038565b97506110a083611050565b925050600181019050611081565b5085935050505092915050565b600060208201905081810360008301526110d5818461105d565b905092915050565b60006110e882610ff7565b9050919050565b6110f8816110dd565b82525050565b600060208201905061111360008301846110ef565b92915050565b600060408201905061112e60008301856110ef565b61113b60208301846110ef565b9392505050565b7f4e487b7100000000000000000000000000000000000000000000000000000000600052602160045260246000fd5b60006060820190506111866000830186610dd9565b6111936020830185610dd9565b6111a06040830184610dd9565b949350505050565b6000819050919050565b6111bb816111a8565b82525050565b600067ffffffffffffffff82169050919050565b6111de816111c1565b82525050565b600061ffff82169050919050565b6111fb816111e4565b82525050565b600063ffffffff82169050919050565b61121a81611201565b82525050565b600060a08201905061123560008301886111b2565b61124260208301876111d5565b61124f60408301866111f2565b61125c6060830185611211565b6112696080830184611211565b9695505050505050565b60008151905061128281610bf8565b92915050565b60006020828403121561129e5761129d610be4565b5b60006112ac84828501611273565b91505092915050565b7f4e487b7100000000000000000000000000000000000000000000000000000000600052601160045260246000fd5b60006112ef82610bee565b91506112fa83610bee565b9250828203905081811115611312576113116112b5565b5b92915050565b7f4e487b7100000000000000000000000000000000000000000000000000000000600052603260045260246000fd5b7f4e487b7100000000000000000000000000000000000000000000000000000000600052601260045260246000fd5b600061138182610bee565b915061138c83610bee565b92508261139c5761139b611347565b5b828206905092915050565b600081905092915050565b50565b60006113c26000836113a7565b91506113cd826113b2565b600082019050919050565b60006113e3826113b5565b915081905091905056fea26469706673582212209c96b41acc3be70a0a0fd6c420385b401a50c066a9a9cbdc58319430fb2f8e8f64736f6c63430008110033",
  "devdoc": {
    "author": "SiegfriedBz",
    "details": "This implements Chainlink VRF v2 and Chainlink Keeper (\"Automation\")",
    "kind": "dev",
    "methods": {
      "checkUpkeep(bytes)": {
        "details": "function called by the ChainLink Keeper (\"Automation\") nodes They look for \"upkeepNeeded\" to return true To return true the following is needed 1. Lottery is in \"open\" state (\"closed\" when waiting for a random number from Chainlink VRF) 2. Time interval has passed 3. Lottery has >= 1player, and Lottery is funded 4. ChainLink subscription has enough LINK"
      },
      "performUpkeep(bytes)": {
        "details": "function called by the ChainLink Keeper (\"Automation\") nodes when checkUpkeep() return true"
      }
    },
    "title": "A sample Lottery contract",
    "version": 1
  },
  "userdoc": {
    "kind": "user",
    "methods": {
      "enterLottery()": {
        "notice": "adds msg.sender to the players array"
      },
      "getFee()": {
        "notice": "Getter for front end returns the entrance fee"
      },
      "getInterval()": {
        "notice": "Getter for front end"
      },
      "getLatestTimeStamp()": {
        "notice": "Getter for front end"
      },
      "getLotteryState()": {
        "notice": "Getter for front end"
      },
      "getNewWinner()": {
        "notice": "Getter for front end"
      },
      "getNumWords()": {
        "notice": "Getter for front end"
      },
      "getPlayers()": {
        "notice": "Getter for front end returns the players array"
      },
      "getRequestConfirmations()": {
        "notice": "Getter for front end"
      }
    },
    "notice": "This contract is for creating an untamperable decentralized Lottery smart contractUser can enter Lottery by sending ETHChainlink VRF will pick a random numberChainlink Keeper will call the function to pick a winner",
    "version": 1
  },
  "storageLayout": {
    "storage": [
      {
        "astId": 208,
        "contract": "contracts/Lottery.sol:Lottery",
        "label": "s_players",
        "offset": 0,
        "slot": "0",
        "type": "t_array(t_address_payable)dyn_storage"
      },
      {
        "astId": 225,
        "contract": "contracts/Lottery.sol:Lottery",
        "label": "s_newWinner",
        "offset": 0,
        "slot": "1",
        "type": "t_address_payable"
      },
      {
        "astId": 228,
        "contract": "contracts/Lottery.sol:Lottery",
        "label": "s_lotteryState",
        "offset": 20,
        "slot": "1",
        "type": "t_enum(LotteryState)201"
      },
      {
        "astId": 232,
        "contract": "contracts/Lottery.sol:Lottery",
        "label": "s_lastTimeStamp",
        "offset": 0,
        "slot": "2",
        "type": "t_uint256"
      }
    ],
    "types": {
      "t_address_payable": {
        "encoding": "inplace",
        "label": "address payable",
        "numberOfBytes": "20"
      },
      "t_array(t_address_payable)dyn_storage": {
        "base": "t_address_payable",
        "encoding": "dynamic_array",
        "label": "address payable[]",
        "numberOfBytes": "32"
      },
      "t_enum(LotteryState)201": {
        "encoding": "inplace",
        "label": "enum Lottery.LotteryState",
        "numberOfBytes": "1"
      },
      "t_uint256": {
        "encoding": "inplace",
        "label": "uint256",
        "numberOfBytes": "32"
      }
    }
  }
}